:020000040000FA
:1000000002005000000080FB12005FB900030200F4
:100010004AE4900F00785379018002F0A3D8FCD90C
:10002000FA900F52AA82AB83900062789079048094
:1000300015E493A3AC82AD838A828B83F0A3AA825A
:10004000AB838C828D83D8E9D9E71222B9120003E1
:1000500075D0007581BF75100075110F0200087909
:1000600001226C3A00262679797926262031303013
:100070003030303032200041540D0A0041542B43BF
:10008000474154543D310D0A0041542B4349504DD2
:100090004F44453D310D0A0041542B435354543DC8
:1000A00022434D4E4554220D0A0041542B434949E9
:1000B00043520D0A0041542B43495053544152546A
:1000C0003D22544350222C227777772E7979796418
:1000D0006174612E636F6D222C2239303030220D15
:1000E0000A00256600252E316600252E6600743034
:1000F0003A0068303A0074313A0068313A005431BD
:100100003A002048313A00200020493A000000001F
:100110000000000000002F000000000700070000A2
:10012000147F147F1400242A7F2A120062640813AB
:100130002300364955225000000503000000001C32
:10014000224100000041221C000014083E08140057
:1001500008083E0808000000A06000000808080821
:1001600008000060600000002010080402003E51FA
:1001700049453E0000427F4000004261514946002F
:100180002141454B31001814127F10002745454589
:1001900039003C4A494930000171090503003649DC
:1001A00049493600064949291E000036360000003C
:1001B00000563600000008142241000014141414E4
:1001C00014000041221408000201510906003249BE
:1001D00059513E007C1211127C007F49494936007A
:1001E0003E41414122007F4141221C007F49494953
:1001F00041007F09090901003E4149497A007F0811
:1002000008087F0000417F4100002040413F01007D
:100210007F08142241007F40404040007F020C02D2
:100220007F007F0408107F003E4141413E007F096E
:10023000090906003E4151215E007F091929460047
:1002400046494949310001017F0101003F404040DA
:100250003F001F2040201F003F4038403F006314F4
:1002600008146300070870080700615149454300FE
:10027000007F41410000552A552A55000041417F29
:100280000000040201020400404040404000000120
:10029000020400002054545478007F48444438003D
:1002A000384444442000384444487F00385454546F
:1002B0001800087E0901020018A4A4A47C007F088D
:1002C0000404780000447D4000004080847D0000EC
:1002D0007F102844000000417F4000007C04180487
:1002E00078007C0804047800384444443800FC2436
:1002F0002424180018242418FC007C080404080096
:10030000485454542000043F444020003C404020C6
:100310007C001C2040201C003C4030403C00442815
:10032000102844001CA0A0A07C004464544C441439
:1003300014141414149A99993F10270000E803002C
:1003400000640000000A0000000AD7233C000020DF
:10035000C20000C8C1ACC5A738A2E73BB654E3252C
:100360003D000080C00100C8420000C842CDCCCC96
:100370003D0000F040CD4C6D433928293F0000007E
:10038000C0392829BFF304353F000080BF0000803A
:100390003F1872313F2292D43EDD9B2A3F04000079
:1003A000400100000000000000D85BDE3E3031322A
:1003B0003334353637383941424344454600286E98
:1003C000756C6C20706F696E74657229003F3F3FD9
:1003D000000000807FF9021550B743BA5100002099
:1003E0004100E7DB2E0000A04010000000080000E4
:1003F00000C008C3E096F50808A3E096420808A3E9
:10040000E096420808A3E0964208A2D265D033E500
:10041000087001D3D00822080808E630E711120C52
:100420005E12042F080808C64480C618181822183F
:100430001818E9799EC608CAC608CBC608CCC6C338
:1004400070207996CACBCC7019798ECBCC70137989
:1004500086CC700EF9802ACA33CACB33CBCC33CCCE
:10046000331930E7F2CCCBCA3350147004EA30E0D1
:100470000DE4CA3ACACB3BCBCC3CCC500209C3E911
:1004800013C6CC182313C6CB18C6CA18C6F9221235
:1004900004DA30F03912051F80341204DA20F01427
:1004A00030E72B74FFFCFBFA747F8022E4FCFBFA3C
:1004B0007480801AB48008BC00F2BB00EF800F503B
:1004C000EBF9E4C39AFAE49BFBE49CFCE499C6CC08
:1004D00018C6CB18C6CA18C6F922E4C9C608CAC6C7
:1004E00008CBC6D3330308CCC63392F0C3947F4005
:1004F0002E94184019C9B90704CACBCC225025C381
:1005000009CA33CACB33CBCC33CC33D9F422F46011
:100510000DC9CCC313CB13CBCA13CAD9F6CC22E472
:10052000FCFBFA2214FCFBFA22E6C33318461846F9
:10053000184622E7C33319471947194722181818D4
:10054000E6084608700AE608C3337005E633F4226D
:100550000822191919E7094709700AE709C3337016
:1005600005E733F4220922E6084608C31346083398
:100570006002E633F422E7094709C31347093360F1
:1005800002E733F422120567602512057660201217
:1005900005297003020533080808E766701018196A
:1005A000E766700A1819E76670041819E76622F4FE
:1005B00022120567601C1205766017120529700764
:1005C0001205337001D322C0D01205337006D0D08B
:1005D000B322C32233D0D0501430E0F6C3E79608DC
:1005E00009E7960809E7960809E796B32220E0D5BF
:1005F000E6970809E6970809E6970809E697B322FF
:10060000120567601B120576601612052970071225
:100610000533600CB322C0D01205337005D0D02250
:10062000C32233D0D0501330E0EBC3E7960809E77C
:10063000960809E7960809E7962220E0E4E697087D
:1006400009E6970809E6970809E697220012056768
:10065000604F1205766012E7548066F612053D7011
:1006600011120533703B090909F4F618F618F6184B
:10067000F622120552701512052908080860EAE6EC
:10068000447FF618768018E4F618F62212052960E1
:10069000161205337012E4F608F608F608E65480E0
:1006A000F609090918181822EAC0E0EBC0E0ECC00E
:1006B000E0EDC0E0E687F0A4FBACF008E687F0A42C
:1006C0002CFCE435F0FA1809E687F0A42C4B600204
:1006D0007401CA35F0FCE433FB09E687F0D2F7A4D5
:1006E0002CCB35F0FC1908E687F0A42BCC35F0FBB9
:1006F000E433FD0819E687F0D2E7A42C4ACB35F0A5
:10070000CD3400FC09E687F0D2E7A42DCC35F0FD0E
:10071000E433FA0918E687F0D2F7A42CCD35F0CAF5
:100720003400FC08E687F0D2E7D2F7A42ACC35F0F3
:100730007A7E20E70B0ACB33CBCD33CDCC33CC3311
:10074000CB3350147004ED30E00ED2F1E4CD3DCD4A
:10075000CC3CCC3B5005DA05C2F1EB547FC63308E4
:10076000E63392F0FBE73309E733C39A502D2B7041
:10077000190C0D4C4D70151806E608C333700D208A
:10078000F10AA2F013F6E418800B4024E4F630F0EE
:1007900002768018F618F618F68024D33B14501011
:1007A00074FFA2F013F6187680E418F618F6800F9E
:1007B000A2F013F618E63303F618ECF618EDF6D0AF
:1007C000E0FDD0E0FCD0E0FBD0E0FA22120576603C
:1007D00046120567603DE9687008F618F618F618C5
:1007E000F622748067F7120800090909748067F718
:1007F00022120567601D1205767005191919801AF5
:1008000012053D701F120552C37003E667331919B4
:100810001940071818182208080874FFF618F61867
:10082000F618F6221205526017120533702192F065
:100830001205297019501720F01408080809090931
:10084000E7F61819E7F61819E7F61819E7F622126D
:10085000052960E6E869701F0808E62480F608E4C8
:1008600036F618547FB47F0CE654806007F6E4181F
:10087000F618F622181822E9C6CC08C6CD08C6CE4E
:1008800008C6CFC0E0E8C0E0EAC0E0EBC0E009E99C
:10089000F809E7FA09E7FBE6F918E6F8C3EC98ED82
:1008A00099EE9AEBC2E7F5F0EFC2E795F0500E60D3
:1008B0000CEBCFFBEACEFAE9CDF9E8CCF8EAA2E7F7
:1008C000D2E7FAEB33FB13F5F0EEA2E7D2E7FEEF47
:1008D00033FFC5F013A2E730E601B313C5F0C3C080
:1008E000E0C0F07F00C39BFB605B9418600C401A73
:1008F000D0E023F9D0E0F80209CF8AF0E94860039C
:10090000D2F0E4AFF0FAF9F8803BEB30E40D89F077
:10091000EA6003D2F0E4AFF0F9CAF8EB30E30D88F7
:10092000F0EF6002D2F0AFF0E4CAC9F8EB54076010
:1009300014FBC3EA13FAE913F9E813F8EF135002B2
:10094000D2E0FFDBEDD0E0C0E030E739C3E49FFF49
:10095000F5F0EC98FC42F0ED99FD42F0EE9AFE4283
:10096000F0D0E0F9D0E0F8E5F0607AE923F9EE2084
:10097000E742D8028067C3EF33FFEC33FCED33FD71
:10098000EE33FE80EAEC28FCED39FDEE3AFED0E0D5
:1009900023F9D0E0F84002801BC3EE13FEED13FDF7
:1009A000EC13FCEF135002D2E0FF08B800067F7F83
:1009B00074FF802EEF3350178CF020F00260100C83
:1009C000BC000C0DBD00080EBE000408E860DFE9A5
:1009D00033E813FFEE2313FE4F4D4C8008E954809B
:1009E000FFE4FEFDFCEE33EF33F47004FCFD7E808B
:1009F000D0E0FBD0E0FAD0E0F8D0E0CFC618CEC609
:100A000018CDC618CCC6F92212056770041818183C
:100A100022120576700D74FFF61819F61819F618DB
:100A200019F622E7548066F6120529700F12053375
:100A300070F014F608F608F608F680D11205337047
:100A40000CF608F608768008E6447F80EC1205551F
:100A5000700C12054060BFE65480F6E480BB1205BE
:100A600040700519191980A5E869700C763F187651
:100A70008018F618F6E8F922E6CDC0E018ECC0E0E0
:100A8000E633CD33CDD313F6E719FCE7191933CC90
:100A900033C3947F400ECD9D502408E65480F6E485
:100AA00018F6800FF4043D14501408E6447FF6183D
:100AB0007680E418F618F6D0E0FCD0E0FD22CCD326
:100AC00013CCFD18E4C6CBC0E018E4C6CAC0E008E9
:100AD00008ED08C633E613F618E433C675F003C311
:100AE000CA97CA09CB97CB199C40047D08802EBDBC
:100AF0000003020BB116B6FF050606081618C3CA96
:100B000033CACB33CB33CA27CA09CB37CB193CC343
:100B10007D08803E187D0820E75CC633C6CA33CA0C
:100B2000CB33CB33DDF1D5F0EB30E77BCA97CA0985
:100B3000CB974ACB199C406F4B7025E620E0218073
:100B400066187D08C3CA97CA09CB97CB199CD3C630
:100B500033C6CA33CACB33CB3350C9DDE7D5F0E156
:100B6000D3E4C636C608C636C608C636C608C63674
:100B7000C61818188031C3CA97CA09CB97CB199CDD
:100B8000B34097C633C6CA33CACB33CB33DD34D573
:100B9000F02EC6A2E0C640C8CA27CA09CB37194AF8
:100BA00070BECB3CB480B90808E63308E633601F5A
:100BB000181818D0E0FAD0E0FBD0E0FCD0E0FD221D
:100BC000187D08CA27CA09CB37CB193CD3808013BC
:100BD000F618E4B67F11F618B6FF0EF618C60470C4
:100BE000D20808768080CAF618F618F680C5E4CFD9
:100BF000C0E0E4CEC0E0E4CDC0E0E4CCC0E075F0FD
:100C000020C3E633F608E633F608E633F608E633A3
:100C1000F6181818EC33FCED33FDEE33FEEF33FF1E
:100C2000C3EC9709ED9709EE9709EF971919194049
:100C30000FFFEC97FC09ED97FD09EE97FE191906D9
:100C4000D5F0BEECF709EDF709EEF709EFF7191942
:100C500019D0E0FCD0E0FDD0E0FED0E0FF22181873
:100C600018E4C396F608E496F608E496F608E496C7
:100C7000F622E0F608A3E0F608A3E0F608A3E0F603
:100C800022E6F008A3E6F008A3E6F008A3E6F022C7
:100C9000E0FAA3E0FBA3E0FCA3E0FD22EAF0A3EB73
:100CA000F0A3ECF0A3EDF022CAC0E0E6F0A308DA6E
:100CB000FAD0E0FA22CAC0E0E0A3C582CCC582C562
:100CC00083CDC583F0A3C582CCC582C583CDC58342
:100CD000DAE6D0E0CA22C3E498F8E499F9120D17D5
:100CE0008026C3E49AFAE49BFBE920E7E9120D179A
:100CF000E498F8E499F922C3E498F8E499F9120D1C
:100D000017E498F8E499F9C3E49AFAE49BFB22EB20
:100D100020E7CFE920E7E0B90010BB0008E88AF03F
:100D200084F8AAF022E4FBC8FA22EB70227B10C8F8
:100D300033C8C933C9335007C39AC3DBF280069A5C
:100D400050012ADBEAC833F4C8C933F4C9FA227562
:100D5000F008E4C833C8C933C933C99AC99B5004E1
:100D6000C92AC93BD5F0ECFBC833F4C8E4C9FA2260
:100D7000251010AF08F510400215118008F510403D
:100D8000021511D2AF22C0D0251010AF08F51050B7
:100D90000205118008F51050020511D2AFD0D02203
:100DA0002510F58210AF08F510400215118008F5E6
:100DB0001040021511D2AF851183222510F582E46F
:100DC0003511F58322E4732510C582C0E0E51134A6
:100DD000FFC583C0E0E510C3958224F910AF0885F4
:100DE00083118582108008858311858210D2AFCE51
:100DF000F0A3E520F0A37808E608F0A3DEFAEFF010
:100E0000A3E58124FBF8E608F0A3E608F0A30808B0
:100E1000E608F0A3E608F0A315811581D0E0FED026
:100E2000E0F815811581E8C0E0EEC0E0228511836D
:100E3000851082E0A3FEE0A3F5207808E0A3F60881
:100E4000DFFAE0A3FFE0A3C0E0E0A3C0E0E0A3C0BE
:100E5000E0E0A3C0E010AF08858210858311800810
:100E6000858210858311D2AFD083D0822274028014
:100E7000027401C0E0F404120DA0D0E0120CA8220C
:100E80007404800474028000CCC0E0EDC0E0E51082
:100E9000C39CCCAD1150011D10AF068C108D11807C
:100EA000068C108D11D2AF120CB5D0E0FDD0E0FC55
:100EB0002274F1120DC774FD120D707402120DBB75
:100EC000E9F08A088B098C0A8D0B7414120DBBE0B3
:100ED000FEA3E0FF851082851183E4F0A3F08E82EB
:100EE0008F83A3AA82AB839012C1780C120C727804
:100EF00008790C12058570188E828F83746912131D
:100F000090746EF0A37466F0A30A0AAB8302132BED
:100F10007808790812058560118E828F83746E12AD
:100F200013907461F0A3746E80DD90127D780C12C2
:100F30000C727808790C1205B15003020FDB901285
:100F400095780C120C727808790C120585600302F2
:100F5000102F7416120DBBE0700302107185108201
:100F6000851183C082C0837412120DBB121DCED0B6
:100F700083D082121369502C851082851183C3E0BF
:100F800094FCA3E094FFA2D265D033401774021200
:100F90000DBBE4121EA2F97412120DBBC3E098F04F
:100FA000A3E099F07412120DBB1213867417120D80
:100FB000BBE0700302106E7416120DBBE4021070D9
:100FC0009012C5780C120C727808790C120A0885F8
:100FD0001082851183E0240A121EDF9012C9780C5A
:100FE000120C727808790C1205B140D49012CD78A9
:100FF0000C120C727808790C1205B14003020F52E2
:101000009012CD780C120C727808790C120A081222
:101010001ED680D89012C5780C120C727808790C04
:1010200012064C851082851183E024F612138990F4
:1010300012D1780C120C727808790C12060040D488
:1010400090127D780C120C727808790C1206004010
:1010500003020F529012CD780C120C727808790CA2
:1010600012064C85108285118312138680D274017A
:10107000F07402120DBBE060077A007B0002117D64
:10108000121375507D8E828F837430F0EAFEEBFF71
:101090007412120DBBE0FCA3E0FDEC4D7008741758
:1010A000120DBBE0600B8E828F83742EF0A30EAF07
:1010B000837A007B0080118E828F8374301213B18B
:1010C0007412120DBB121386EA24FF1AEB34FFFBD5
:1010D00085108285118312135D500B7412120DBBA3
:1010E000121DD24970D185108285118374FFC39C73
:1010F000F874FF9DF9121369500302124B7A010232
:10110000107B851082851183121DCEC3E498FAE40A
:1011100099FB806985080C85090D850A0E850B0FE2
:10112000780C12049AAC0CE50D3395E0F50EF50F32
:10113000780C1204177808790C1207CC9012CD782D
:101140000C120C727808790C12064CEC1213ABEAF4
:10115000F8EBF9E824010AE93400FBE849701E7451
:1011600012120DBB121DD24970087417120DBBE08C
:10117000600B8E828F83742EF0A30EAF83741212D5
:101180000DBB12135D508D9012D5780C120C727835
:1011900008790C1205B1400302124B7C01EE24FFCA
:1011A000F8EF34FFF97414120DBBE0F508A3E0F575
:1011B0000988828983E0642E6010E02CF0643A7024
:1011C000077430F07C0180027C00E8FAE9FBEA2435
:1011D000FF18EB34FFF9C3E5089AE5099B40D2EC10
:1011E000A2E050677402120DBBE06036EEF8EF80AB
:1011F0000A121348E824FF18E934FFF9C3E50898F8
:10120000E509995018121335E0642E70E4E824FEC5
:10121000F582E934FFF583121342F980D7121ED606
:10122000801E8E828F83A3AE82AF83EEF8EF80069E
:10123000121335121342F9C3E50898E5099940F0F5
:101240007414120DBB121DED7431F07416120DBB27
:10125000E07005801A1EAF83EE24FFF582EF34FFA5
:10126000F583E0643060EEE0642E70031EAF83749B
:1012700002120DBBE070030213271213ADA3A98362
:101280001213758E828F835014742DF00EE9FF8532
:101290001082851183121E1612139E8006742BF085
:1012A0000EE9FF7C007D00EE240AFEEF3400FFEC27
:1012B00024010CED3400FD12134F120D0FEA12132E
:1012C000AB12134F120D0F1213B84970E2C3EC9416
:1012D00002ED121D7F40D8ECFAEDFBC3E49CF8E46C
:1012E0009DF9EE28F582EF39F583E0C0E0C3E49A7A
:1012F000F8E49BF9EE28F8EF39F9E82CF8E93DF924
:10130000E824F5F582E934FFF583D0E0F0EC24FF22
:101310001CED34FFFDC3EC9401ED121D7F50BCEEBB
:1013200024F6FEEF34FFFFEEFAEFFB7403120D8696
:101330007F08020E2DE824FFFAE934FFFB8A828B36
:10134000832212134818EB22E088828983F02285D9
:101350001082851183121E237A0A7B0022C3E09A31
:10136000A3E09BA2D265D03322C3E098A3E099A268
:10137000D265D03322851082851183C3A3E0940007
:10138000A2D265D03322E024FFF0A3E034FFF022A4
:10139000F0EAFEEBFF8E828F8322A3E03400F98512
:1013A0001082851183E8F0A3E9F02224308E828F29
:1013B00083F0A3AE82AF832285108285118312133E
:1013C000C222E8F0A3E9F0851082851183E022743F
:1013D000F1120DC774B0120D708510828511831241
:1013E0001E887418120DBBECF0A3EDF0740F120DF3
:1013F000BBE4F0A38022745F120DBB121DBE740407
:10140000120DBBE0F97418120DBB121DED120DC5C3
:10141000740F120DBB121D87F0121E01FA121EC1AD
:10142000120DBBEAF074256A6010E070C9740F12E7
:101430000DBB121DBE745002132D121E01642570C7
:1014400019851082851183E024010812139A745FB4
:10145000120DBB121DBE792580AB740E120DBBE4BC
:10146000F0740D120DBBE4F0740C120DBBE4F074BB
:1014700005120DBBE4F0741E120DBBA882A9837483
:1014800002120DBB80157405120DBBE070077405C8
:10149000120DBBEAF08510828511831213BE121D56
:1014A000B5121E48FA24E060DD24FD601724F860C0
:1014B000DD24FE600624FD600F8011740C120DBB4C
:1014C000E00480D0740D80F5740E80F1121E486423
:1014D0002A705B7461120DBB121E53FB8A828B83D0
:1014E000E0FCA3E0FD740A120DBBECF0A3EDF0EA02
:1014F00024020A0AEB3400FB7461120DBB121E8039
:10150000740A120DBB12137B501F740A120DBB120A
:101510001DBEC3E49AFAE49BFB740A120DBB121EB3
:1015200088740C120DBBE004F012139F804A740AF9
:10153000120DBBE4F0A3802D740A120DBB121DD254
:1015400075F00AA4F8AAF075F00AE9A42AF9E508EA
:1015500028F8E439F9E824D0F8E934FFF9740A12DC
:101560000DBB121EE6121EA2F5838882E0F50874F8
:10157000D02508C3940A40C0740C120DBBE060076C
:10158000740E120DBBE4F0121E01642E60030216ED
:101590001A851082851183E0240108A3E03400F944
:1015A0001213B8121DF2E0642A702C7461120DBB84
:1015B000121E07F8A3E0F988828983E0FEA3E0FF0A
:1015C000E824020808E93400F97461120DBB121E08
:1015D0003B121EE6F080477E007F00851082851159
:1015E00083121E1074D02508C3940A5031EE75F092
:1015F0000AA4FEA8F075F00AEFA428FFE5082EF86B
:10160000E43FF9E824D0FEE934FFFF85108285111C
:1016100083E02401F812139A80C17EFF7FFF7A00D5
:10162000851082851183121DB0851082851183E09B
:10163000FBA3E0F5838B82E024B4600824E460051A
:1016400024FC70040A12139F121E01FB121EC11209
:101650000DBBEBF07003021C2524BB7003021AEBD8
:1016600024FE7003021ACD24EF700302181724F52C
:10167000700302171C1470030218BC147003021AC2
:10168000EB147003021AE9147003021ACD24FE70E1
:10169000030218BC24FB60241470030218071470A2
:1016A0000302181724FD700302175524FE7003026D
:1016B000181724FD7003021817021C317461120DF3
:1016C000BB121E7A120DBB1213A5EAA2E0740F50D2
:1016D00033120DBBE0FCA3E0FD3395E0FE7406126F
:1016E0000DBB121E5BECF0A3EDF0A3EEF0A3F074C3
:1016F00061120DBB121E62120DBB121E3BE8F0A35D
:10170000E9021418120DBB121DCE7406120DBB1285
:101710001E53F5838A82E8F0A3E980D27461120D2A
:10172000BB121E5BE0C0E0741E120DBBD0E0F07473
:1017300061120DBB121E62120DBB121E3B1213A5CD
:10174000741F120DBBA882A9837412120DBBE8F09E
:10175000A3E9021C487461120DBB121E7A120DBB64
:101760001213A57406120DBB121E7A120DBBE024D3
:1017700002FAA3E03400FB7461120DBB121E8074E8
:1017800002120DBB1213A5E849700C7402120DBBB6
:1017900074AEF0A37412F0121D7D50047E107F27EA
:1017A0007408120DBBE4F0A380087408120DBB127C
:1017B0001D87F07402120DBB121DCE88828983A38F
:1017C000AA82AB837402120DBB121E8888828983A1
:1017D000E0600A7408120DBB121DD740CD740212CE
:1017E0000DBB121D9E7412120DBB1213A5740812AC
:1017F0000DBB121E16F97412120DBBE028F8A3E0FF
:1018000039F9740202174B740D120DBBE06008EE3B
:101810004F70047E017F007461120DBB121E7A129C
:101820000DBB121ECE120DBBE06470703874061230
:101830000DBB121E70120DBB121EA9120DBBE024AF
:1018400002121E32120DBB121E3B1213A59012D9AA
:10185000120C90741A120DBB120C9C7405120DBB65
:10186000E4F002194CEAA2E07406501B120DBB1200
:101870001DED120C907414120DBB120C9C74061208
:101880000DBBE024048012120DBB121E70120DBBA2
:10189000121EA9120DBBE02402121E32120DBB1241
:1018A0001E3B121ECE120DBBE0646F70059012DD60
:1018B000809EE06475709690123580947461120D6C
:1018C000BB121E7A120DBB1213A5EAA2E0740650D9
:1018D00016120DBB121DED7808120C727406120D53
:1018E000BBE02404F8801B120DBB121E10A3E0F510
:1018F000093395E0F50AF50B7406120DBBE02402DE
:101900000808121E33120DBB121EB6120DBB78084A
:10191000120C8190129578081203F140217405127F
:101920000DBB742DF07414120DBB7808120C727874
:1019300008120C617414120DBB7808120C819012FD
:1019400035120C90741A120DBB120C9C744F120DB0
:10195000BBA882A9837402120DBB1213A5741212C4
:101960000DBB121EB9120DBB7808120C72E50845AA
:1019700009450A450B60097411120DBB74018006FC
:101980007411120DBBE4F0EE4F7008E0A2E04003CA
:10199000021A407402120DBB121DE7120DBB121E7B
:1019A000B9120DBB780C120C72741A120DBB7808A8
:1019B000120C72780C7908120BEE749D2508F582D2
:1019C00074123509F583E0C0E07402120DBB121DDC
:1019D000EDD0E0F07414120DBB780C120C72741A76
:1019E000120DBB7808120C72780C7908120BEE7489
:1019F00014120DBB780C120C817414120DBB7808F4
:101A0000120C72E5084509450A450B7086121D7DCA
:101A1000502E740E120DBBE060267405120DBBE053
:101A20006004D2F08002C2F0740A120DBB121D9045
:101A3000800E7402120DBB121E9A120DBB121DFAFB
:101A40007402120DBB121D9E744F120DBBC082C0DA
:101A5000837402120DBB121DBED083D082E582C3F7
:101A60009AFAE5839BFBC3EA9EEB121DE040C37428
:101A70000D120DBBE07003021C497411120DBBE086
:101A8000A2E04003021C497404120DBBE0647860BC
:101A900005E06458701E121348E824FF18E934FF6B
:101AA000F97402120DBB121E9A120DBB121DED74B9
:101AB00030021C48E0646F6003021C497402120D7E
:101AC000BB121E4E64307003021C4980D47408128D
:101AD0000DBB7401F0A3E4F07404120DBBE024FE0E
:101AE000F0EE4F700F7E018012E4F07408120DBB0F
:101AF000E4F0A3F0121D7D50047E067F0074611295
:101B00000DBB121E7A120DBB1213A57406120DBB6B
:101B1000121DED780C120C727406120DBBE0240439
:101B2000121E32120DBB121EB6120DBB780C120C17
:101B3000819012957808120C72780C7908120600C0
:101B400050227405120DBB742DF07414120DBB7865
:101B500008120C72E50BB2E7F50B7414120DBB788A
:101B600008120C81740A120DBB121DCE741E120DC8
:101B7000BBE58228F8E58339F97402120DBB121314
:101B8000A5740D120DBBE0F5087808120E717409EA
:101B9000120DBBE0F5087808120E717404120DBB2B
:101BA000120E848E088F097808120E6D740A120DB9
:101BB000BBE0F9741A120DBB120C90120EB1740630
:101BC000120D867412120DBB121E88740E120DBBFC
:101BD000E060767405120DBBE06004D2F08002C2B2
:101BE000F0740A120DBB121D907412120DBBC0824C
:101BF000C0837402120DBB121DCED083D082E0C30D
:101C000098F8A3E099F9C3E89EE9121DE0503A74F0
:101C100002120DBB121DE7120DBB121E9A120DBB54
:101C2000121DFA80C4851082851183121DA712131C
:101C30009E7402120DBB74BDF0A37412F0741212E4
:101C40000DBB74C0F0A37412F07412120DBBC082ED
:101C5000C0837402120DBB121DCED083D082E0C3AC
:101C600098FEA3E099FF740A120DBB121DD7500A0B
:101C70007408120DBBE4F0A380307405120DBBE0B4
:101C80006004D2F08002C2F0740A120DBBE0C39E61
:101C9000F8A3E09FF9A2F0E433FAE89AF8E9940097
:101CA000F97408120DBBE8F0A3E9F0740C120DBB37
:101CB000E0702B8019745F120DBB121DC4120DBB96
:101CC000121DED120DC5740F120DBB121EDC74082F
:101CD000120DBB121E8E120DBB12137B50D7740552
:101CE000120DBBE06050745F120DBB121DBE740577
:101CF000120DBBE0F97418120DBB121DED120DC5CB
:101D0000802C745F120DBB121DBE7402120DBB122B
:101D10001E07F97418120DBB121DED120DC57402C9
:101D2000120DBB121DB07402120DBB1213A5740F5D
:101D3000120DBB121EDCEE24FF1EEF34FFFFC31298
:101D40001D7F50BE740C120DBBE070030214197499
:101D500008120DBB121E8E120DBB12137B50030214
:101D60001419745F120DBB121DC4120DBB121DEDB0
:101D7000120DC5740F120DBB121EDC80D2C3EF947E
:101D800000A2D265D03322E02401F0A3E034002287
:101D9000A2F0E433F8E098FEA3E09400FF22121DC5
:101DA000A222121DA7F922E024FFF8A3E034FF22AB
:101DB000E0121DB5222401F8A3E03400F922E0FA74
:101DC000A3E0FB22E0FAA3E0FB7920741822121EA4
:101DD0002322121E23E822C3E09EA3E0121DE0226C
:101DE0009FA2D265D03322121DA2740222121DF1CD
:101DF00022E0F8A3E0F583888222121DF17430F00E
:101E000022851082851183121E0B22121E29E022C8
:101E1000121E0BF50822121E23C3E498F8E499223F
:101E2000121E29E0F8A3E0F922E0F8A3E0F5838888
:101E30008222F8A3E03400F9746122121E3F22E0EE
:101E4000FAA3E0F5838A8222851082851183121E0F
:101E50003FE022121E3FE0FAA3E022121E0B121DE9
:101E6000F222121E0B2402F8A3E03400F97461225E
:101E7000121E20E8FAE9FB741422121E20740622B6
:101E8000E0FCA3E0F5838C82EAF0A3EBF022E024EF
:101E9000FFF0A3E034FFF0740822E8F0A3E9F07447
:101EA00002221213C6F8A3E022EAF0A3EBF0A3E4A7
:101EB000F0A3F0740622121E3FE8F0A3E9F07414B8
:101EC00022851082851183E0240108121EF4E8F0B7
:101ED000A3E9F0740422851082851183E02401F0C7
:101EE000A3E03400F0221213C22401F8121EF4E819
:101EF000F0A3E922A3E03400F98510828511832242
:101F0000EA4B600CEA24FF1AEB34FFFBEA4B70F457
:101F100022D2807808C292E9A2E74004C2938002EC
:101F2000D293D292C333F918E870EA22C2807808BB
:101F3000C292E9A2E74004C2938002D293D292C334
:101F400033F918E870EA2274F8120DC7E9FEEAFFC7
:101F500074B02FF9121F2CEEC4540F4410F9121F45
:101F60002C740F5E4401F9121F2C7F01020E2D7498
:101F7000F8120DC7E9FE75080074B02508121FB7E6
:101F80007F80EEF9121F111FEF70F70508E508C3F7
:101F9000940840E580D474F8120DC77F0074B02F08
:101FA000121FB77E807900121F111EEE70F70FEF1F
:101FB000C3940840E880B3F9121F2C7901121F2C3A
:101FC0007910121F2C2253F3FE43FD0153F4734387
:101FD000FE8CD292C2977A327B00121F00D2977980
:101FE000AE12206B79101220627981121F2C79CFEA
:101FF000121F2C79A1121F2C79C812205979A8120E
:102000001F2C793F121F2C79D312206B79D5121F08
:102010002C7980121F2C79D9121F2C79F1121F2CC8
:1020200079DA121F2C7912121F2C79DB12206279B7
:1020300020121F2C7902121F2C798D121F2C79145B
:10204000121F2C79A412205979AF121F2C79FF127C
:102050001F6F7A007900021F47121F2C79A6121FEA
:102060002C22121F2C7940121F2C22121F2C7900B7
:10207000121F2C2274F1120DC789088A098C0E8D4B
:102080000F750A00804424E0FEE508C3947F4005F4
:102090007508000509AA09A908121F47EE75F00680
:1020A000A4F8A9F074FD28F582740F39F583E58250
:1020B0002406FEE5833400FF1220E37003EF6583FE
:1020C00070F674062508F508050A1220D270B702CA
:1020D00020ED850A0CE50E250CF582E50F3400F5A0
:1020E00083E022E0F9121F11A3EE6582227F08022D
:1020F0000E2DC082C0838C828D83EAFCEBFD7A00BA
:102100001221317A008047C082C0838C828D83EA9D
:10211000FCEBFD7A011221317A018032C082C0834A
:102120008C828D83EAFCEBFD7A031221317A0380E5
:102130001D7900122074AC82AD8322C082C0838CD2
:10214000828D83EAFCEBFD7A041221317A04792036
:10215000122074D083D08222C082C0838C828D836F
:10216000EAFCEBFD7A061221317A0680E1EA4B6047
:1021700011EAF8EBF974F00000001470FA1221D49F
:1021800070F32253C6BFE59EA2E640FA53C6B87567
:10219000F10075F30C53FF3F43868043C50B43C2E8
:1021A000D8C2E922C082C083C3EC9401ED9400A29E
:1021B000D265D033401BECF8EDF98A828B83E0F5D1
:1021C000C1A3AA82AB83A2E950FCC2E91221D47058
:1021D000E9022153E824FF18E934FFF9E8492274A1
:1021E000F1120DC774FB120D7012331C8A0C8B0D8B
:1021F000E4F50EF50F780C120432901225780812CF
:102200000C72780C7908120A08780C12048F90125C
:10221000297808120C72780C7908120BEE90122DA6
:10222000780C120C727808790C120BEE75F064E5DC
:102230000C84FA850C08850D09850E0A850F0B9014
:102240001231780C120C727808790C120BEE851092
:10225000828511837430F07401120DBB7430F02A42
:10226000C0E07402120DBBD0E0F075F00A850C08D6
:10227000E508842430C0E07403120DBBD0E0F09078
:1022800012357808120C72780C7908120BEEE508FA
:102290002430C0E07404120DBBD0E0F085108285BC
:1022A0001183AC82AD837A527B0F122158AA82AB84
:1022B000837405120D860220ED7452120D70900F7A
:1022C00000C082744C120DBBAC82AD8375830FD0FD
:1022D000827450120CB5900F557412120CB5C29046
:1022E000122183121FC6121F96122C191226C053D8
:1022F000F3DF43FD20D28553F3EF43FD10D2847A00
:10230000507BC312216D7C047D007A677B0F122401
:10231000F97C0C7D007A6C7B0F1224F97C0E7D0019
:102320007A797B0F1224F97C117D007A887B0F1259
:1023300024F97C0A7D007A9A7B0F1224F97C2D7D8A
:10234000007AA57B0F1224F97A507BC312216D8588
:102350001082851183AC82AD837404120DBBAA82F6
:10236000AB8312298DE960030223F3851082851166
:1023700083120E807CD27D0F7446120DBB1224EFA7
:10238000120D867404120DBB120E807CD27D0F7468
:102390003C120DBB1224EF120D868510828511832D
:1023A000120E807CD57D0F7432120DBB1224EF12F9
:1023B0000D867404120DBB120E807CDA7D0F74281A
:1023C000120DBB1224EF120D867442120DBBAC82AB
:1023D000AD837ADE7B0F1220F27438120DBBAC8213
:1023E000AD837AE27B0F122107D2F0A29130F00187
:1023F000B392917408120DBBAC82AD83740C120DB4
:10240000BBAA82AB83122EE6E970587408120DBB8A
:10241000120E807CD27D0F741E120DBB1224EF129F
:102420000D86740C120DBB120E807CD27D0F7414BD
:10243000120DBB1224EF120D86741A120DBBAC8262
:10244000AD837AE67B0F12211C7410120DBBAC8297
:10245000AD837AEA7B0F12213BD2F0A29130F001DA
:10246000B392911221DF8A088B09749C120DBBACC8
:1024700082AD83744C120DBBAA82AB831235227CD1
:10248000EE7D0FAA82AB83123522742E120DBBACE7
:1024900082AD83744C120DBBAA82AB831235227CB1
:1024A000F27D0FAA82AB831235227CF77D0FAA82C0
:1024B000AB831235227424120DBBAC82AD83744CF5
:1024C000120DBBAA82AB831235227CF97D0FAA8242
:1024D000AB83123522AC08AD09AA82AB8312352238
:1024E000E4F0D2F0A29030F001B3929002234FAA10
:1024F00082AB831233D57404221221A47A507BC399
:1025000012216D222274F8120DC7E9FE7F80EF5E62
:102510006004D2818002C281122573EFC313FF7061
:10252000EDD28153FDFD122686D280E580122683EE
:10253000C280A2E1E433F97F01020E2D74F8120D7E
:10254000C7E9FE750800D28153FDFD12268674800E
:10255000D280A28150024208C280C31370F21226B8
:1025600083EE6004C2818002D281122573D281A9D8
:102570000880C4D280122504122504122504C280CA
:1025800022D281C28012259BC2811225BD12250450
:1025900012259BD281122504C28022122504D280EA
:1025A00012250422EEC0E0D281C2807E09D28012C0
:1025B00025BD1EEE70F7122581D0E0FE2212250403
:1025C000C2801225042274F4120DC7EAFEEBFF8CC0
:1025D0000A8D0B890C750800750900122581E50C20
:1025E0006005146006800C790380027905122505C8
:1025F000E9F50853FDFD12268678007900A2815086
:102600000A12268D700374FF6970F278007900A2B7
:1026100081500A12268D700374FF6970F278007978
:1026200000A281500A12268D700374FF6970F2783F
:10263000007900A281500A12268D700374FF697020
:10264000F2A281500BE5082401F508E43400F509F5
:10265000E50845096002C291122683122678A3F08C
:10266000122678F0790012253CE9850A82850B83D1
:10267000F0A9087F05020E2D790112253CE98E8212
:102680008F832243FD02538FFD53F7DF22E824019D
:1026900008E93400F974FF6822EA4B6014EA240167
:1026A000F8EB1226B740F61226B240F11226B240DD
:1026B000EC22E8240108E93400F9C3E89AE99B22F6
:1026C00053F3FC43FD03538FFD122683C28143FD68
:1026D00001C2801225A47A147B0002269974F1129B
:1026E0000DC774F6120D70851082851183EAF0A370
:1026F000EBF0ECFEEDFF12285D120C907402120D4F
:10270000BB120C9C8E828F837808120C7290123947
:10271000780C120C727808790C12064C90123D78E5
:102720000C120C727808790C1207F17406120DBBAA
:102730007808120C817406120DBB7808120C729086
:102740001241780C120C727808790C1207F1C0084B
:10275000C009C00AC00B7402120DBB7808120C72BB
:10276000901245780C120C727808790C12064C9075
:102770001239780C120C727808790C1207F1D00F0C
:10278000D00ED00DD00C780C790812064CC00CC0BD
:102790000DC00EC00F7402120DBB7808120C72909F
:1027A0001249780C120C727808790C12064C7402DB
:1027B000120DBB780C120C727808790C12064CC002
:1027C00008C009C00AC00B7402120DBB780C120CB1
:1027D0007290124D7808120C72780C790812064C1F
:1027E000D00BD00AD009D0087808790C1207F190E4
:1027F0001251780C120C727808790C1207F1D00F74
:10280000D00ED00DD00C780C79081207F19012552B
:102810007808120C72780C79081205B150059012E4
:1028200059801490125D7808120C72780C79081295
:102830000600500890125D780C120C727406120D8E
:10284000BB120C908E828F83120C9C12285D780C28
:10285000120C81740A120D867F08020E2D851082DB
:10286000851183E0F8A3E0F58388822274F1120DCC
:10287000C774F8120D707404120DBBEAF0A3EBF0EC
:10288000A3ECF0A3EDF07417120DBB7808120C72D4
:10289000901261780C120C727808790C12064CC0F8
:1028A00008C009C00AC00B7417120DBB780C120CBB
:1028B000729012657808120C72780C79081207F180
:1028C000D00BD00AD009D0087808790C120A0890E9
:1028D0001269780C120C727808790C1207F1C00892
:1028E000C009C00AC00B7404120DBB120C90123444
:1028F0004B8A0C8B0D8C0E8D0F90126D7808120C7C
:1029000072780C79081207F1D00BD00AD009D008E0
:102910007808790C1207F1851082851183780812E6
:102920000C818510828511837808120C72901271C7
:10293000780C120C727808790C1207F190126578F5
:102940000C120C727808790C12064CC008C009C031
:102950000AC00B750C84750D92750E02750F4185BA
:1029600010828511837808120C72780C790812078E
:10297000CCD00BD00AD009D0087808790C120A08FC
:10298000AA08AB09AC0AAD0B740802285574F11201
:102990000DC774F3120D708A0E8B0F8C0C8D0D7990
:1029A00001851082851183AC82AD837405120DBB45
:1029B000AA82AB831225C6E9FE79008510828511B3
:1029C00083AC82AD837401120DBBAA82AB83122546
:1029D000C6E92EFE600C1225A47A507BC3122699FC
:1029E00080797405120DBB122A621204327405122A
:1029F0000DBB122A71120DBB122A6212043274012D
:102A0000120DBB122A71120DBBAC82AD837405127C
:102A10000DBBAA82AB831226DD7401120DBB120E10
:102A2000807409120DBB120C9012286C7404120DE4
:102A3000867409120DBB120C9C7405120DBB120C8E
:102A400090850E82850F83120C9C7401120DBB12AF
:102A50000C90850C82850D83120C9CEEF9740D028E
:102A60002855E0F508A3E0F509E4F50AF50B780828
:102A700022E508F0A3E509F0A3E50AF0A3E50BF0D1
:102A80007401222274F8120DC7E9FE7F80EF5E60A8
:102A900004D2878002C287122AF2EFC313FF70EDBF
:102AA000D28753FD7F122C05D286E580122C02C2FC
:102AB00086A2E7E433F97F01020E2D74F8120DC7E8
:102AC000E9FE750800D28753FD7F122C057480D271
:102AD00086A28750024208C286C31370F2122C02EB
:102AE000EE6004C2878002D287122AF2D287A90838
:102AF00080C4D286122A83122A83122A83C2862293
:102B0000D287C286122B1AC287122B3C122A83123A
:102B10002B1AD287122A83C28622122A83D28612C5
:102B20002A8322EEC0E0D287C2867E09D286122B8B
:102B30003C1EEE70F7122B00D0E0FE22122A83C258
:102B400086122A832274F4120DC7EAFEEBFF8C0A68
:102B50008D0B890C750800750900122B00E50C60BF
:102B600005146006800C790380027905122A84E935
:102B7000F50853FD7F122C0578007900A287500AD2
:102B8000122C0C700374FF6970F278007900A28730
:102B9000500A122C0C700374FF6970F278007900EF
:102BA000A287500A122C0C700374FF6970F278002F
:102BB0007900A287500A122C0C700374FF6970F21E
:102BC000A287500BE5082401F508E43400F509E577
:102BD0000845096002C291122C02122BF7A3F012D1
:102BE0002BF7F07900122ABBE9850A82850B83F066
:102BF000A9087F05020E2D7901122ABBE98E828F6A
:102C0000832243FD80538F7F53F7DF22E82401089E
:102C1000E93400F974FF68222253F33F43FDC053A7
:102C20008FFD122C02C28743FD40C286122B237AED
:102C3000147B00022C1874F1120DC774F6120D707B
:102C4000851082851183EAF0A3EBF0ECFEEDFF1214
:102C50002DB6120C907402120DBB120C9C8E828F3A
:102C6000837808120C72901239780C120C72780862
:102C7000790C12064C90123D780C120C727808797F
:102C80000C1207F17406120DBB7808120C81740641
:102C9000120DBB7808120C72901241780C120C7253
:102CA0007808790C1207F1C008C009C00AC00B747B
:102CB00002120DBB7808120C72901245780C120C9F
:102CC000727808790C12064C901239780C120C723A
:102CD0007808790C1207F1D00FD00ED00DD00C78F7
:102CE0000C790812064CC00CC00DC00EC00F740247
:102CF000120DBB7808120C72901249780C120C72EB
:102D00007808790C12064C7402120DBB780C120C68
:102D1000727808790C12064CC008C009C00AC00BB2
:102D20007402120DBB780C120C7290124D780812BE
:102D30000C72780C790812064CD00BD00AD009D04E
:102D4000087808790C1207F1901251780C120C7265
:102D50007808790C1207F1D00FD00ED00DD00C7876
:102D60000C79081207F19012557808120C72780C41
:102D700079081205B15005901259801490125D78AF
:102D800008120C72780C7908120600500890125D37
:102D9000780C120C727406120DBB120C908E828F7E
:102DA00083120C9C122DB6780C120C81740A120D31
:102DB000867F08020E2D851082851183E0F8A3E03E
:102DC000F58388822274F1120DC774F8120D7074A5
:102DD00004120DBBEAF0A3EBF0A3ECF0A3EDF0744A
:102DE00017120DBB7808120C72901261780C120C3D
:102DF000727808790C12064CC008C009C00AC00BD2
:102E00007417120DBB780C120C72901265780812B0
:102E10000C72780C79081207F1D00BD00AD009D0C7
:102E2000087808790C120A08901269780C120C7252
:102E30007808790C1207F1C008C009C00AC00B74E9
:102E400004120DBB120C9012344B8A0C8B0D8C0E9D
:102E50008D0F90126D7808120C72780C7908120799
:102E6000F1D00BD00AD009D0087808790C1207F1FC
:102E70008510828511837808120C81851082851156
:102E8000837808120C72901271780C120C72780808
:102E9000790C1207F1901265780C120C727808798F
:102EA0000C12064CC008C009C00AC00B750C847512
:102EB0000D92750E02750F41851082851183780879
:102EC000120C72780C79081207CCD00BD00AD009FA
:102ED000D0087808790C120A08AA08AB09AC0AAD28
:102EE0000B7408022DAE74F1120DC774F3120D703D
:102EF0008A0E8B0F8C0C8D0D7901851082851183C4
:102F0000AC82AD837405120DBBAA82AB83122B4534
:102F1000E9FE7900851082851183AC82AD8374014E
:102F2000120DBBAA82AB83122B45E92EFE600C1258
:102F30002B237A507BC3122C1880797405120DBB99
:102F4000122FBB1204327405120DBB122FCA120DC0
:102F5000BB122FBB1204327401120DBB122FCA1206
:102F60000DBBAC82AD837405120DBBAA82AB83127C
:102F70002C367401120DBB120E807409120DBB1297
:102F80000C90122DC57404120D867409120DBB121B
:102F90000C9C7405120DBB120C90850E82850F835C
:102FA000120C9C7401120DBB120C90850C82850DC5
:102FB00083120C9CEEF9740D022DAEE0F508A3E02F
:102FC000F509E4F50AF50B780822E508F0A3E50910
:102FD000F0A3E50AF0A3E50BF074012274F1120DE1
:102FE000C774F6120D70851082851183EAF0A3EB89
:102FF000F0A3ECF0A3EDF085108285118378081220
:103000000C72901291780C120C727808790C1206DE
:103010000050338510828511837808120C7290124B
:1030200095780C120C727808790C120585900F5067
:10303000700A74221231E27DFF0231D874211231FC
:10304000E27D7F0231D87404120DBB85820885832E
:10305000097808120E6D7402120DBB120C90123416
:10306000C17402120D86851082851183120C9C8515
:1030700010828511837808120C72901275780C12E8
:103080000C727808790C1206005032851082851176
:10309000837808120C727401C31313250AF50AE42D
:1030A000350BF50B8510828511837808120C81741D
:1030B00004120DBBE024FFF0A3E034FFF085108282
:1030C0008511837808120C72901279780C120C72A8
:1030D0007808790C1207F1C008C009C00AC00B8536
:1030E0001082851183780C120C7290127D78081270
:1030F0000C72780C79081207F1D00BD00AD009D0E5
:10310000087808790C120A088510828511837808DE
:10311000120C818510828511837808120C7285103B
:1031200082851183780C120C727808790C12064C87
:103130007406120DBB7808120C817404120DBBE0EA
:10314000F5083395E0F509F50AF50B780812041730
:10315000901281780C120C727808790C12064CC00F
:1031600008C009C00AC00B7406120DBB7808120C07
:1031700072901285780C120C727808790C12064C39
:10318000901289780C120C727808790C1207F1747D
:1031900006120DBB780C120C727808790C12064CD2
:1031A00090128D780C120C727808790C1207F18548
:1031B0001082851183780C120C727808790C120633
:1031C0004CD00FD00ED00DD00C780C79081207F12E
:1031D000AA0CAB0DAC0EAD0F740A120D867F08025F
:1031E0000E2DF0A3E4F07AFF7BFF7C7F2274640055
:1031F00000000000000000000000000000000000CF
:1032000000000000000000000000000000000014AA
:1032100070DD22EA4B602C0000000000000000007E
:10322000000000000000000000000000000000009E
:1032300000000000000000EA24FF1AEB34FFFBEA64
:103240004B70D42243FD10D284D2851231EDC2845A
:103250001231EDC2850231ED43FD10C2841232ED10
:10326000D28480EC74F5120DC7890975080043FDFE
:10327000107E807F00EE55096004D2848002C284F3
:103280001231EDD28512330B120D0F1232F650E5CA
:10329000D28453FDEFD2851231EDA284500375081C
:1032A000011231EDC285A9087F04020E2D74F512BA
:1032B0000DC78909750800D2847E807F00D28512EF
:1032C00031ED53FDEFA2845003EE420812330B128E
:1032D0000D0F1232F650E643FD10E5096004C2847A
:1032E0008002D2841232EDC285D28480B91231EDCF
:1032F000D2851231ED22880A890BAE0AAF0BC3EEDC
:103300009401EF9400A2D265D033221231EDC28530
:103310001231EDEEF8EFF97A027B002274F7120D0C
:10332000C743FD027AC87B001232131233A3600632
:103330007AFF7B0080657901123264E960047AFECD
:1033400080F01233A060047AFD80E77901123264C4
:10335000E960047AFC80DB1233A060047AFB80D23F
:103360007910123264E960047AFA80C61232587A0F
:10337000DC7B051232131232447947123264E96061
:10338000047AF980AD79011232ADE9FE790012328A
:10339000ADE9F508123258EEAA08FB7F02020E2DA5
:1033A0001232581232447946123264E922C082C085
:1033B000838A828B83123442E9F08A828B83E024F1
:1033C00001FCA3E03400FD8A828B83ECF0A3EDF0D6
:1033D000D083D0822274F7120DC774FC120D707462
:1033E00002120DBBEAF0A3EBF0ECFAEDFB740D1248
:1033F0000DBBA882A983851082851183E8F0A3E91B
:10340000F0851082851183858208858309780812EA
:103410000E6D7404120DBB8582088583097808122D
:103420000E6D7CAD7D331213CF7404120D867402C1
:10343000120DBB123442E4F07404120D867F0202B6
:103440000E2DE0F8A3E0F58388822274F1120DC7F7
:103450008A088B098C0A8D0B901291780C120C72D1
:103460007808790C1206005026901295780C120CF0
:10347000727808790C120585900F50700974221229
:1034800034B67DFF802B74211234B67D7F802212EA
:103490002FDC8A088B098C0A8D0B901299780C12FC
:1034A0000C727808790C12064CAA08AB09AC0AAD6C
:1034B0000B7F08020E2DF0A3E4F07AFF7BFF7C7FE8
:1034C0002274F1120DC78A088B098C0A8D0B740FB8
:1034D000120DBBE0F8A3E0F9E8FAE9FB9012957849
:1034E0000C120C727808790C120585700E8A828B8A
:1034F00083E4F0A3F0FAFBFCFD8022EC33ED3324EF
:1035000082F83395E0F98A828B83E8F0A3E9F0AA88
:1035100008AB09ED5480443FFDECC2E7FC7F080294
:103520000E2D74F8120DC7EAF8EBF98005A3AA82F4
:10353000AB838A828B83E070F48C828D83E0A3ACB2
:1035400082AD838A828B83F0A3AA82AB8370EAE880
:08355000FAE9FB7F01020E2DD8
:0400000500000050A7
:00000001FF
